{
  "address": "0xC288d45f7BC48d769371B8F75D8208Ee35c739c1",
  "abi": [
    {
      "inputs": [
        {
          "internalType": "address",
          "name": "_tokenAddress",
          "type": "address"
        },
        {
          "internalType": "uint256",
          "name": "_vestingDuration",
          "type": "uint256"
        }
      ],
      "stateMutability": "nonpayable",
      "type": "constructor"
    },
    {
      "anonymous": false,
      "inputs": [
        {
          "indexed": true,
          "internalType": "address",
          "name": "previousOwner",
          "type": "address"
        },
        {
          "indexed": true,
          "internalType": "address",
          "name": "newOwner",
          "type": "address"
        }
      ],
      "name": "OwnershipTransferred",
      "type": "event"
    },
    {
      "anonymous": false,
      "inputs": [
        {
          "indexed": true,
          "internalType": "address",
          "name": "staker",
          "type": "address"
        },
        {
          "indexed": false,
          "internalType": "uint256",
          "name": "amount",
          "type": "uint256"
        }
      ],
      "name": "Staked",
      "type": "event"
    },
    {
      "anonymous": false,
      "inputs": [
        {
          "indexed": true,
          "internalType": "address",
          "name": "staker",
          "type": "address"
        },
        {
          "indexed": false,
          "internalType": "uint256",
          "name": "amount",
          "type": "uint256"
        }
      ],
      "name": "Withdrawn",
      "type": "event"
    },
    {
      "inputs": [
        {
          "internalType": "address",
          "name": "_address",
          "type": "address"
        }
      ],
      "name": "getStakedAmount",
      "outputs": [
        {
          "internalType": "uint256",
          "name": "",
          "type": "uint256"
        }
      ],
      "stateMutability": "view",
      "type": "function"
    },
    {
      "inputs": [
        {
          "internalType": "address",
          "name": "_address",
          "type": "address"
        }
      ],
      "name": "isWhitelisted",
      "outputs": [
        {
          "internalType": "bool",
          "name": "",
          "type": "bool"
        }
      ],
      "stateMutability": "view",
      "type": "function"
    },
    {
      "inputs": [],
      "name": "owner",
      "outputs": [
        {
          "internalType": "address",
          "name": "",
          "type": "address"
        }
      ],
      "stateMutability": "view",
      "type": "function"
    },
    {
      "inputs": [],
      "name": "renounceOwnership",
      "outputs": [],
      "stateMutability": "nonpayable",
      "type": "function"
    },
    {
      "inputs": [
        {
          "internalType": "uint256",
          "name": "_amount",
          "type": "uint256"
        }
      ],
      "name": "stake",
      "outputs": [],
      "stateMutability": "nonpayable",
      "type": "function"
    },
    {
      "inputs": [
        {
          "internalType": "address",
          "name": "",
          "type": "address"
        }
      ],
      "name": "stakedAmount",
      "outputs": [
        {
          "internalType": "uint256",
          "name": "",
          "type": "uint256"
        }
      ],
      "stateMutability": "view",
      "type": "function"
    },
    {
      "inputs": [
        {
          "internalType": "address",
          "name": "",
          "type": "address"
        }
      ],
      "name": "startTime",
      "outputs": [
        {
          "internalType": "uint256",
          "name": "",
          "type": "uint256"
        }
      ],
      "stateMutability": "view",
      "type": "function"
    },
    {
      "inputs": [],
      "name": "tokenAddress",
      "outputs": [
        {
          "internalType": "address",
          "name": "",
          "type": "address"
        }
      ],
      "stateMutability": "view",
      "type": "function"
    },
    {
      "inputs": [
        {
          "internalType": "address",
          "name": "newOwner",
          "type": "address"
        }
      ],
      "name": "transferOwnership",
      "outputs": [],
      "stateMutability": "nonpayable",
      "type": "function"
    },
    {
      "inputs": [
        {
          "internalType": "address",
          "name": "_address",
          "type": "address"
        },
        {
          "internalType": "bool",
          "name": "_status",
          "type": "bool"
        }
      ],
      "name": "updateWhitelist",
      "outputs": [],
      "stateMutability": "nonpayable",
      "type": "function"
    },
    {
      "inputs": [],
      "name": "vestingDuration",
      "outputs": [
        {
          "internalType": "uint256",
          "name": "",
          "type": "uint256"
        }
      ],
      "stateMutability": "view",
      "type": "function"
    },
    {
      "inputs": [
        {
          "internalType": "address",
          "name": "",
          "type": "address"
        }
      ],
      "name": "whitelist",
      "outputs": [
        {
          "internalType": "bool",
          "name": "",
          "type": "bool"
        }
      ],
      "stateMutability": "view",
      "type": "function"
    },
    {
      "inputs": [],
      "name": "withdraw",
      "outputs": [],
      "stateMutability": "nonpayable",
      "type": "function"
    }
  ],
  "transactionHash": "0x41f36c5d9887b529b80cf119cfbc60a3702ee15e24f2161cca4a33459d654316",
  "args": [
    "0xD243805353884D606c30c69FA0440E5D87Bf53d7",
    10
  ],
  "numDeployments": 1,
  "solcInputHash": "56e4150152a3a44106537cc31d6068c9",
  "bytecode": "0x60806040523480156200001157600080fd5b50604051620016753803806200167583398181016040528101906200003791906200021f565b620000576200004b620000ae60201b60201c565b620000b660201b60201c565b6001808190555081600260006101000a81548173ffffffffffffffffffffffffffffffffffffffff021916908373ffffffffffffffffffffffffffffffffffffffff16021790555080600381905550505062000266565b600033905090565b60008060009054906101000a900473ffffffffffffffffffffffffffffffffffffffff169050816000806101000a81548173ffffffffffffffffffffffffffffffffffffffff021916908373ffffffffffffffffffffffffffffffffffffffff1602179055508173ffffffffffffffffffffffffffffffffffffffff168173ffffffffffffffffffffffffffffffffffffffff167f8be0079c531659141344cd1fd0a4f28419497f9722a3daafe3b4186f6b6457e060405160405180910390a35050565b600080fd5b600073ffffffffffffffffffffffffffffffffffffffff82169050919050565b6000620001ac826200017f565b9050919050565b620001be816200019f565b8114620001ca57600080fd5b50565b600081519050620001de81620001b3565b92915050565b6000819050919050565b620001f981620001e4565b81146200020557600080fd5b50565b6000815190506200021981620001ee565b92915050565b600080604083850312156200023957620002386200017a565b5b60006200024985828601620001cd565b92505060206200025c8582860162000208565b9150509250929050565b6113ff80620002766000396000f3fe608060405234801561001057600080fd5b50600436106100cf5760003560e01c8063715018a61161008c5780639d76ea58116100665780639d76ea5814610200578063a694fc3a1461021e578063f2fde38b1461023a578063f993185514610256576100cf565b8063715018a6146101a85780638da5cb5b146101b25780639b19251a146101d0576100cf565b80630d392cd9146100d45780631514617e146100f05780633af32abf1461010e5780633ccfd60b1461013e5780634da6a556146101485780636e1dc66e14610178575b600080fd5b6100ee60048036038101906100e99190610d4d565b610286565b005b6100f86102e9565b6040516101059190610da6565b60405180910390f35b61012860048036038101906101239190610dc1565b6102ef565b6040516101359190610dfd565b60405180910390f35b610146610345565b005b610162600480360381019061015d9190610dc1565b610670565b60405161016f9190610da6565b60405180910390f35b610192600480360381019061018d9190610dc1565b6106b9565b60405161019f9190610da6565b60405180910390f35b6101b06106d1565b005b6101ba6106e5565b6040516101c79190610e27565b60405180910390f35b6101ea60048036038101906101e59190610dc1565b61070e565b6040516101f79190610dfd565b60405180910390f35b61020861072e565b6040516102159190610e27565b60405180910390f35b61023860048036038101906102339190610e6e565b610754565b005b610254600480360381019061024f9190610dc1565b610a75565b005b610270600480360381019061026b9190610dc1565b610af8565b60405161027d9190610da6565b60405180910390f35b61028e610b10565b80600660008473ffffffffffffffffffffffffffffffffffffffff1673ffffffffffffffffffffffffffffffffffffffff16815260200190815260200160002060006101000a81548160ff0219169083151502179055505050565b60035481565b6000600660008373ffffffffffffffffffffffffffffffffffffffff1673ffffffffffffffffffffffffffffffffffffffff16815260200190815260200160002060009054906101000a900460ff169050919050565b61034d610b8e565b6000600460003373ffffffffffffffffffffffffffffffffffffffff1673ffffffffffffffffffffffffffffffffffffffff16815260200190815260200160002054116103cf576040517f08c379a00000000000000000000000000000000000000000000000000000000081526004016103c690610ef8565b60405180910390fd5b6000600354600560003373ffffffffffffffffffffffffffffffffffffffff1673ffffffffffffffffffffffffffffffffffffffff1681526020019081526020016000205461041e9190610f47565b905080421015610463576040517f08c379a000000000000000000000000000000000000000000000000000000000815260040161045a90610fc7565b60405180910390fd5b6000600460003373ffffffffffffffffffffffffffffffffffffffff1673ffffffffffffffffffffffffffffffffffffffff1681526020019081526020016000205490506000600460003373ffffffffffffffffffffffffffffffffffffffff1673ffffffffffffffffffffffffffffffffffffffff168152602001908152602001600020819055506000600560003373ffffffffffffffffffffffffffffffffffffffff1673ffffffffffffffffffffffffffffffffffffffff168152602001908152602001600020819055503373ffffffffffffffffffffffffffffffffffffffff167f7084f5476618d8e60b11ef0d7d3f06914655adb8793e28ff7f018d4c76d505d5826040516105779190610da6565b60405180910390a26000600260009054906101000a900473ffffffffffffffffffffffffffffffffffffffff1690508073ffffffffffffffffffffffffffffffffffffffff1663a9059cbb33846040518363ffffffff1660e01b81526004016105e1929190610fe7565b6020604051808303816000875af1158015610600573d6000803e3d6000fd5b505050506040513d601f19601f820116820180604052508101906106249190611025565b610663576040517f08c379a000000000000000000000000000000000000000000000000000000000815260040161065a9061109e565b60405180910390fd5b50505061066e610bdd565b565b6000600460008373ffffffffffffffffffffffffffffffffffffffff1673ffffffffffffffffffffffffffffffffffffffff168152602001908152602001600020549050919050565b60056020528060005260406000206000915090505481565b6106d9610b10565b6106e36000610be6565b565b60008060009054906101000a900473ffffffffffffffffffffffffffffffffffffffff16905090565b60066020528060005260406000206000915054906101000a900460ff1681565b600260009054906101000a900473ffffffffffffffffffffffffffffffffffffffff1681565b600660003373ffffffffffffffffffffffffffffffffffffffff1673ffffffffffffffffffffffffffffffffffffffff16815260200190815260200160002060009054906101000a900460ff166107e0576040517f08c379a00000000000000000000000000000000000000000000000000000000081526004016107d79061110a565b60405180910390fd5b6107e8610b8e565b6000811161082b576040517f08c379a00000000000000000000000000000000000000000000000000000000081526004016108229061119c565b60405180910390fd5b6000600460003373ffffffffffffffffffffffffffffffffffffffff1673ffffffffffffffffffffffffffffffffffffffff16815260200190815260200160002054146108ad576040517f08c379a00000000000000000000000000000000000000000000000000000000081526004016108a490611208565b60405180910390fd5b6000600260009054906101000a900473ffffffffffffffffffffffffffffffffffffffff1690508073ffffffffffffffffffffffffffffffffffffffff166323b872dd3330856040518463ffffffff1660e01b815260040161091193929190611228565b6020604051808303816000875af1158015610930573d6000803e3d6000fd5b505050506040513d601f19601f820116820180604052508101906109549190611025565b610993576040517f08c379a000000000000000000000000000000000000000000000000000000000815260040161098a9061109e565b60405180910390fd5b81600460003373ffffffffffffffffffffffffffffffffffffffff1673ffffffffffffffffffffffffffffffffffffffff1681526020019081526020016000208190555042600560003373ffffffffffffffffffffffffffffffffffffffff1673ffffffffffffffffffffffffffffffffffffffff168152602001908152602001600020819055503373ffffffffffffffffffffffffffffffffffffffff167f9e71bc8eea02a63969f509818f2dafb9254532904319f9dbda79b67bd34a5f3d83604051610a619190610da6565b60405180910390a250610a72610bdd565b50565b610a7d610b10565b600073ffffffffffffffffffffffffffffffffffffffff168173ffffffffffffffffffffffffffffffffffffffff1603610aec576040517f08c379a0000000000000000000000000000000000000000000000000000000008152600401610ae3906112d1565b60405180910390fd5b610af581610be6565b50565b60046020528060005260406000206000915090505481565b610b18610caa565b73ffffffffffffffffffffffffffffffffffffffff16610b366106e5565b73ffffffffffffffffffffffffffffffffffffffff1614610b8c576040517f08c379a0000000000000000000000000000000000000000000000000000000008152600401610b839061133d565b60405180910390fd5b565b600260015403610bd3576040517f08c379a0000000000000000000000000000000000000000000000000000000008152600401610bca906113a9565b60405180910390fd5b6002600181905550565b60018081905550565b60008060009054906101000a900473ffffffffffffffffffffffffffffffffffffffff169050816000806101000a81548173ffffffffffffffffffffffffffffffffffffffff021916908373ffffffffffffffffffffffffffffffffffffffff1602179055508173ffffffffffffffffffffffffffffffffffffffff168173ffffffffffffffffffffffffffffffffffffffff167f8be0079c531659141344cd1fd0a4f28419497f9722a3daafe3b4186f6b6457e060405160405180910390a35050565b600033905090565b600080fd5b600073ffffffffffffffffffffffffffffffffffffffff82169050919050565b6000610ce282610cb7565b9050919050565b610cf281610cd7565b8114610cfd57600080fd5b50565b600081359050610d0f81610ce9565b92915050565b60008115159050919050565b610d2a81610d15565b8114610d3557600080fd5b50565b600081359050610d4781610d21565b92915050565b60008060408385031215610d6457610d63610cb2565b5b6000610d7285828601610d00565b9250506020610d8385828601610d38565b9150509250929050565b6000819050919050565b610da081610d8d565b82525050565b6000602082019050610dbb6000830184610d97565b92915050565b600060208284031215610dd757610dd6610cb2565b5b6000610de584828501610d00565b91505092915050565b610df781610d15565b82525050565b6000602082019050610e126000830184610dee565b92915050565b610e2181610cd7565b82525050565b6000602082019050610e3c6000830184610e18565b92915050565b610e4b81610d8d565b8114610e5657600080fd5b50565b600081359050610e6881610e42565b92915050565b600060208284031215610e8457610e83610cb2565b5b6000610e9284828501610e59565b91505092915050565b600082825260208201905092915050565b7f4e6f207374616b6520746f207769746864726177000000000000000000000000600082015250565b6000610ee2601483610e9b565b9150610eed82610eac565b602082019050919050565b60006020820190508181036000830152610f1181610ed5565b9050919050565b7f4e487b7100000000000000000000000000000000000000000000000000000000600052601160045260246000fd5b6000610f5282610d8d565b9150610f5d83610d8d565b9250828201905080821115610f7557610f74610f18565b5b92915050565b7f56657374696e6720706572696f6420686173206e6f7420656e64656420796574600082015250565b6000610fb1602083610e9b565b9150610fbc82610f7b565b602082019050919050565b60006020820190508181036000830152610fe081610fa4565b9050919050565b6000604082019050610ffc6000830185610e18565b6110096020830184610d97565b9392505050565b60008151905061101f81610d21565b92915050565b60006020828403121561103b5761103a610cb2565b5b600061104984828501611010565b91505092915050565b7f546f6b656e207472616e73666572206661696c65640000000000000000000000600082015250565b6000611088601583610e9b565b915061109382611052565b602082019050919050565b600060208201905081810360008301526110b78161107b565b9050919050565b7f596f7520617265206e6f742077686974656c69737465642e0000000000000000600082015250565b60006110f4601883610e9b565b91506110ff826110be565b602082019050919050565b60006020820190508181036000830152611123816110e7565b9050919050565b7f5374616b656420616d6f756e74206d757374206265206772656174657220746860008201527f616e203000000000000000000000000000000000000000000000000000000000602082015250565b6000611186602483610e9b565b91506111918261112a565b604082019050919050565b600060208201905081810360008301526111b581611179565b9050919050565b7f596f75206861766520616e20616374697665207374616b650000000000000000600082015250565b60006111f2601883610e9b565b91506111fd826111bc565b602082019050919050565b60006020820190508181036000830152611221816111e5565b9050919050565b600060608201905061123d6000830186610e18565b61124a6020830185610e18565b6112576040830184610d97565b949350505050565b7f4f776e61626c653a206e6577206f776e657220697320746865207a65726f206160008201527f6464726573730000000000000000000000000000000000000000000000000000602082015250565b60006112bb602683610e9b565b91506112c68261125f565b604082019050919050565b600060208201905081810360008301526112ea816112ae565b9050919050565b7f4f776e61626c653a2063616c6c6572206973206e6f7420746865206f776e6572600082015250565b6000611327602083610e9b565b9150611332826112f1565b602082019050919050565b600060208201905081810360008301526113568161131a565b9050919050565b7f5265656e7472616e637947756172643a207265656e7472616e742063616c6c00600082015250565b6000611393601f83610e9b565b915061139e8261135d565b602082019050919050565b600060208201905081810360008301526113c281611386565b905091905056fea264697066735822122052d8a74ac793758a8eadb78b873ec6df35d9a4eee728eb6c04493ddd2a28052e64736f6c63430008130033",
  "devdoc": {
    "kind": "dev",
    "methods": {
      "owner()": {
        "details": "Returns the address of the current owner."
      },
      "renounceOwnership()": {
        "details": "Leaves the contract without owner. It will not be possible to call `onlyOwner` functions. Can only be called by the current owner. NOTE: Renouncing ownership will leave the contract without an owner, thereby disabling any functionality that is only available to the owner."
      },
      "transferOwnership(address)": {
        "details": "Transfers ownership of the contract to a new account (`newOwner`). Can only be called by the current owner."
      }
    },
    "version": 1
  },
  "userdoc": {
    "kind": "user",
    "methods": {},
    "version": 1
  },
  "storageLayout": {
    "storage": [
      {
        "astId": 7,
        "contract": "contracts/StakingContract.sol:StakingContract",
        "label": "_owner",
        "offset": 0,
        "slot": "0",
        "type": "t_address"
      },
      {
        "astId": 123,
        "contract": "contracts/StakingContract.sol:StakingContract",
        "label": "_status",
        "offset": 0,
        "slot": "1",
        "type": "t_uint256"
      },
      {
        "astId": 288,
        "contract": "contracts/StakingContract.sol:StakingContract",
        "label": "tokenAddress",
        "offset": 0,
        "slot": "2",
        "type": "t_address"
      },
      {
        "astId": 290,
        "contract": "contracts/StakingContract.sol:StakingContract",
        "label": "vestingDuration",
        "offset": 0,
        "slot": "3",
        "type": "t_uint256"
      },
      {
        "astId": 294,
        "contract": "contracts/StakingContract.sol:StakingContract",
        "label": "stakedAmount",
        "offset": 0,
        "slot": "4",
        "type": "t_mapping(t_address,t_uint256)"
      },
      {
        "astId": 298,
        "contract": "contracts/StakingContract.sol:StakingContract",
        "label": "startTime",
        "offset": 0,
        "slot": "5",
        "type": "t_mapping(t_address,t_uint256)"
      },
      {
        "astId": 302,
        "contract": "contracts/StakingContract.sol:StakingContract",
        "label": "whitelist",
        "offset": 0,
        "slot": "6",
        "type": "t_mapping(t_address,t_bool)"
      }
    ],
    "types": {
      "t_address": {
        "encoding": "inplace",
        "label": "address",
        "numberOfBytes": "20"
      },
      "t_bool": {
        "encoding": "inplace",
        "label": "bool",
        "numberOfBytes": "1"
      },
      "t_mapping(t_address,t_bool)": {
        "encoding": "mapping",
        "key": "t_address",
        "label": "mapping(address => bool)",
        "numberOfBytes": "32",
        "value": "t_bool"
      },
      "t_mapping(t_address,t_uint256)": {
        "encoding": "mapping",
        "key": "t_address",
        "label": "mapping(address => uint256)",
        "numberOfBytes": "32",
        "value": "t_uint256"
      },
      "t_uint256": {
        "encoding": "inplace",
        "label": "uint256",
        "numberOfBytes": "32"
      }
    }
  }
}